{
  "_format": "hh-sol-artifact-1",
  "contractName": "STToken",
  "sourceName": "business_logic/contracts/STToken.sol",
  "abi": [
    {
      "inputs": [],
      "stateMutability": "nonpayable",
      "type": "constructor"
    },
    {
      "anonymous": false,
      "inputs": [
        {
          "indexed": true,
          "internalType": "address",
          "name": "owner",
          "type": "address"
        },
        {
          "indexed": true,
          "internalType": "address",
          "name": "spender",
          "type": "address"
        },
        {
          "indexed": false,
          "internalType": "uint256",
          "name": "value",
          "type": "uint256"
        }
      ],
      "name": "Approval",
      "type": "event"
    },
    {
      "anonymous": false,
      "inputs": [
        {
          "indexed": true,
          "internalType": "address",
          "name": "owner",
          "type": "address"
        },
        {
          "indexed": true,
          "internalType": "uint256",
          "name": "amount",
          "type": "uint256"
        }
      ],
      "name": "Locked",
      "type": "event"
    },
    {
      "anonymous": false,
      "inputs": [
        {
          "indexed": true,
          "internalType": "address",
          "name": "previousOwner",
          "type": "address"
        },
        {
          "indexed": true,
          "internalType": "address",
          "name": "newOwner",
          "type": "address"
        }
      ],
      "name": "OwnershipTransferred",
      "type": "event"
    },
    {
      "anonymous": false,
      "inputs": [
        {
          "indexed": true,
          "internalType": "address",
          "name": "from",
          "type": "address"
        },
        {
          "indexed": true,
          "internalType": "address",
          "name": "to",
          "type": "address"
        },
        {
          "indexed": false,
          "internalType": "uint256",
          "name": "value",
          "type": "uint256"
        }
      ],
      "name": "Transfer",
      "type": "event"
    },
    {
      "inputs": [],
      "name": "_totalSupply",
      "outputs": [
        {
          "internalType": "uint256",
          "name": "",
          "type": "uint256"
        }
      ],
      "stateMutability": "view",
      "type": "function"
    },
    {
      "inputs": [
        {
          "internalType": "address",
          "name": "_owner",
          "type": "address"
        },
        {
          "internalType": "address",
          "name": "_spender",
          "type": "address"
        }
      ],
      "name": "allowance",
      "outputs": [
        {
          "internalType": "uint256",
          "name": "",
          "type": "uint256"
        }
      ],
      "stateMutability": "view",
      "type": "function"
    },
    {
      "inputs": [
        {
          "internalType": "address",
          "name": "_spender",
          "type": "address"
        },
        {
          "internalType": "uint256",
          "name": "_amount",
          "type": "uint256"
        }
      ],
      "name": "approve",
      "outputs": [
        {
          "internalType": "bool",
          "name": "",
          "type": "bool"
        }
      ],
      "stateMutability": "nonpayable",
      "type": "function"
    },
    {
      "inputs": [
        {
          "internalType": "address",
          "name": "_account",
          "type": "address"
        }
      ],
      "name": "balanceOf",
      "outputs": [
        {
          "internalType": "uint256",
          "name": "",
          "type": "uint256"
        }
      ],
      "stateMutability": "view",
      "type": "function"
    },
    {
      "inputs": [],
      "name": "decimals",
      "outputs": [
        {
          "internalType": "uint8",
          "name": "",
          "type": "uint8"
        }
      ],
      "stateMutability": "view",
      "type": "function"
    },
    {
      "inputs": [
        {
          "internalType": "address",
          "name": "_spender",
          "type": "address"
        },
        {
          "internalType": "uint256",
          "name": "_amount",
          "type": "uint256"
        }
      ],
      "name": "decreaseApproval",
      "outputs": [
        {
          "internalType": "uint256",
          "name": "",
          "type": "uint256"
        }
      ],
      "stateMutability": "nonpayable",
      "type": "function"
    },
    {
      "inputs": [
        {
          "internalType": "address",
          "name": "_owner",
          "type": "address"
        },
        {
          "internalType": "uint256",
          "name": "_amount",
          "type": "uint256"
        }
      ],
      "name": "decreaseLockedAmount",
      "outputs": [
        {
          "internalType": "uint256",
          "name": "",
          "type": "uint256"
        }
      ],
      "stateMutability": "nonpayable",
      "type": "function"
    },
    {
      "inputs": [
        {
          "internalType": "address",
          "name": "_owner",
          "type": "address"
        }
      ],
      "name": "getLockedAmount",
      "outputs": [
        {
          "internalType": "uint256",
          "name": "",
          "type": "uint256"
        }
      ],
      "stateMutability": "view",
      "type": "function"
    },
    {
      "inputs": [
        {
          "internalType": "address",
          "name": "_owner",
          "type": "address"
        }
      ],
      "name": "getUnlockedAmount",
      "outputs": [
        {
          "internalType": "uint256",
          "name": "",
          "type": "uint256"
        }
      ],
      "stateMutability": "view",
      "type": "function"
    },
    {
      "inputs": [
        {
          "internalType": "address",
          "name": "_spender",
          "type": "address"
        },
        {
          "internalType": "uint256",
          "name": "_amount",
          "type": "uint256"
        }
      ],
      "name": "increaseApproval",
      "outputs": [
        {
          "internalType": "uint256",
          "name": "",
          "type": "uint256"
        }
      ],
      "stateMutability": "nonpayable",
      "type": "function"
    },
    {
      "inputs": [
        {
          "internalType": "address",
          "name": "_owner",
          "type": "address"
        },
        {
          "internalType": "uint256",
          "name": "_amount",
          "type": "uint256"
        }
      ],
      "name": "increaseLockedAmount",
      "outputs": [
        {
          "internalType": "uint256",
          "name": "",
          "type": "uint256"
        }
      ],
      "stateMutability": "nonpayable",
      "type": "function"
    },
    {
      "inputs": [],
      "name": "name",
      "outputs": [
        {
          "internalType": "string",
          "name": "",
          "type": "string"
        }
      ],
      "stateMutability": "view",
      "type": "function"
    },
    {
      "inputs": [],
      "name": "owner",
      "outputs": [
        {
          "internalType": "address",
          "name": "",
          "type": "address"
        }
      ],
      "stateMutability": "view",
      "type": "function"
    },
    {
      "inputs": [],
      "name": "renounceOwnership",
      "outputs": [],
      "stateMutability": "nonpayable",
      "type": "function"
    },
    {
      "inputs": [],
      "name": "symbol",
      "outputs": [
        {
          "internalType": "string",
          "name": "",
          "type": "string"
        }
      ],
      "stateMutability": "view",
      "type": "function"
    },
    {
      "inputs": [],
      "name": "totalSupply",
      "outputs": [
        {
          "internalType": "uint256",
          "name": "",
          "type": "uint256"
        }
      ],
      "stateMutability": "view",
      "type": "function"
    },
    {
      "inputs": [
        {
          "internalType": "address",
          "name": "_recipient",
          "type": "address"
        },
        {
          "internalType": "uint256",
          "name": "_amount",
          "type": "uint256"
        }
      ],
      "name": "transfer",
      "outputs": [
        {
          "internalType": "bool",
          "name": "",
          "type": "bool"
        }
      ],
      "stateMutability": "nonpayable",
      "type": "function"
    },
    {
      "inputs": [
        {
          "internalType": "address",
          "name": "_sender",
          "type": "address"
        },
        {
          "internalType": "address",
          "name": "_recipient",
          "type": "address"
        },
        {
          "internalType": "uint256",
          "name": "_amount",
          "type": "uint256"
        }
      ],
      "name": "transferFrom",
      "outputs": [
        {
          "internalType": "bool",
          "name": "",
          "type": "bool"
        }
      ],
      "stateMutability": "nonpayable",
      "type": "function"
    },
    {
      "inputs": [
        {
          "internalType": "address",
          "name": "newOwner",
          "type": "address"
        }
      ],
      "name": "transferOwnership",
      "outputs": [],
      "stateMutability": "nonpayable",
      "type": "function"
    }
  ],
  "bytecode": "0x60806040523480156200001157600080fd5b5060006200001e620000f6565b600080546001600160a01b0319166001600160a01b0383169081178255604051929350917f8be0079c531659141344cd1fd0a4f28419497f9722a3daafe3b4186f6b6457e0908290a3506040805180820190915260078082526629aa2a37b5b2b760c91b60209092019182526200009891600191620000fa565b506040805180820190915260038082526214d51560ea1b6020909201918252620000c591600291620000fa565b506003805460ff19166012179055662386f26fc1000060048190553360009081526006602052604090205562000196565b3390565b828054600181600116156101000203166002900490600052602060002090601f016020900481019282601f106200013d57805160ff19168380011785556200016d565b828001600101855582156200016d579182015b828111156200016d57825182559160200191906001019062000150565b506200017b9291506200017f565b5090565b5b808211156200017b576000815560010162000180565b61106280620001a66000396000f3fe608060405234801561001057600080fd5b50600436106101215760003560e01c8063715018a6116100ad578063a06b7eb011610071578063a06b7eb014610359578063a9059cbb14610385578063d73dd623146103b1578063dd62ed3e146103dd578063f2fde38b1461040b57610121565b8063715018a6146102d1578063732726d1146102db5780638da5cb5b14610307578063929ec5371461032b57806395d89b411461035157610121565b8063313ce567116100f4578063313ce567146102335780633eaaf86b14610251578063420d4a0214610259578063661884631461027f57806370a08231146102ab57610121565b806306fdde0314610126578063095ea7b3146101a357806318160ddd146101e357806323b872dd146101fd575b600080fd5b61012e610431565b6040805160208082528351818301528351919283929083019185019080838360005b83811015610168578181015183820152602001610150565b50505050905090810190601f1680156101955780820380516001836020036101000a031916815260200191505b509250505060405180910390f35b6101cf600480360360408110156101b957600080fd5b506001600160a01b0381351690602001356104be565b604080519115158252519081900360200190f35b6101eb61057a565b60408051918252519081900360200190f35b6101cf6004803603606081101561021357600080fd5b506001600160a01b03813581169160208101359091169060400135610580565b61023b61069a565b6040805160ff9092168252519081900360200190f35b6101eb6106a3565b6101eb6004803603602081101561026f57600080fd5b50356001600160a01b03166106a9565b6101eb6004803603604081101561029557600080fd5b506001600160a01b038135169060200135610741565b6101eb600480360360208110156102c157600080fd5b50356001600160a01b0316610805565b6102d9610836565b005b6101eb600480360360408110156102f157600080fd5b506001600160a01b0381351690602001356108e2565b61030f610a04565b604080516001600160a01b039092168252519081900360200190f35b6101eb6004803603602081101561034157600080fd5b50356001600160a01b0316610a13565b61012e610a93565b6101eb6004803603604081101561036f57600080fd5b506001600160a01b038135169060200135610aeb565b6101cf6004803603604081101561039b57600080fd5b506001600160a01b038135169060200135610bf0565b6101eb600480360360408110156103c757600080fd5b506001600160a01b038135169060200135610cdf565b6101eb600480360360408110156103f357600080fd5b506001600160a01b0381358116916020013516610dce565b6102d96004803603602081101561042157600080fd5b50356001600160a01b0316610e22565b60018054604080516020600284861615610100026000190190941693909304601f810184900484028201840190925281815292918301828280156104b65780601f1061048b576101008083540402835291602001916104b6565b820191906000526020600020905b81548152906001019060200180831161049957829003601f168201915b505050505081565b60006001600160a01b0383166104d357600080fd5b600082116104e057600080fd5b33600090815260056020908152604080832054600690925282205461050491610f24565b905080831061051257600080fd5b3360008181526007602090815260408083206001600160a01b03891680855290835292819020879055805187815290519293927f8c5be1e5ebec7d5bd14f71427d1e84f3dd0314c0f7b2291e5b200ac8c7c3b925929181900390910190a35060019392505050565b60045490565b60006001600160a01b03841661059557600080fd5b6001600160a01b0383166105a857600080fd5b600082116105b557600080fd5b6001600160a01b038416600090815260056020908152604080832054600690925290912054038211156105e757600080fd5b6001600160a01b03841660009081526006602052604090205461060a9083610f24565b6001600160a01b0380861660009081526006602052604080822093909355908516815220546106399083610f81565b6001600160a01b0380851660008181526006602090815260409182902094909455805186815290519193928816927fddf252ad1be2c89b69c2b068fc378daa952ba7f163c4a11628f55a4df523b3ef92918290030190a35060019392505050565b60035460ff1681565b60045481565b60006106b3610fe2565b6001600160a01b03166106c4610a04565b6001600160a01b03161461070d576040805162461bcd60e51b8152602060048201819052602482015260008051602061100d833981519152604482015290519081900360640190fd5b6001600160a01b03821660009081526005602090815260408083205460069092529091205461073b91610f24565b92915050565b3360009081526007602090815260408083206001600160a01b038616845290915281205480831115610771578092505b61077b8184610f24565b3360008181526007602090815260408083206001600160a01b038a1680855290835292819020949094558351878152935191937f8c5be1e5ebec7d5bd14f71427d1e84f3dd0314c0f7b2291e5b200ac8c7c3b925929081900390910190a350503360009081526007602090815260408083206001600160a01b038616845290915290205492915050565b60006001600160a01b03821661081a57600080fd5b506001600160a01b031660009081526006602052604090205490565b61083e610fe2565b6001600160a01b031661084f610a04565b6001600160a01b031614610898576040805162461bcd60e51b8152602060048201819052602482015260008051602061100d833981519152604482015290519081900360640190fd5b600080546040516001600160a01b03909116907f8be0079c531659141344cd1fd0a4f28419497f9722a3daafe3b4186f6b6457e0908390a3600080546001600160a01b0319169055565b60006108ec610fe2565b6001600160a01b03166108fd610a04565b6001600160a01b031614610946576040805162461bcd60e51b8152602060048201819052602482015260008051602061100d833981519152604482015290519081900360640190fd5b6001600160a01b03831661095957600080fd5b6001600160a01b03831660009081526005602052604081205461097c9084610f81565b6001600160a01b03851660009081526006602052604090205490915081106109a357600080fd5b6001600160a01b038416600081815260056020526040808220849055518592917f9f1ec8c880f76798e7b793325d625e9b60e4082a553c98f42b6cda368dd6000891a35050506001600160a01b031660009081526005602052604090205490565b6000546001600160a01b031690565b6000610a1d610fe2565b6001600160a01b0316610a2e610a04565b6001600160a01b031614610a77576040805162461bcd60e51b8152602060048201819052602482015260008051602061100d833981519152604482015290519081900360640190fd5b506001600160a01b031660009081526005602052604090205490565b6002805460408051602060018416156101000260001901909316849004601f810184900484028201840190925281815292918301828280156104b65780601f1061048b576101008083540402835291602001916104b6565b6000610af5610fe2565b6001600160a01b0316610b06610a04565b6001600160a01b031614610b4f576040805162461bcd60e51b8152602060048201819052602482015260008051602061100d833981519152604482015290519081900360640190fd5b6001600160a01b038316610b6257600080fd5b6001600160a01b03831660009081526005602052604090205480831115610b87578092505b610b918184610f24565b6001600160a01b038516600081815260056020526040808220849055517f9f1ec8c880f76798e7b793325d625e9b60e4082a553c98f42b6cda368dd600089190a35050506001600160a01b031660009081526005602052604090205490565b60006001600160a01b038316610c0557600080fd5b60008211610c1257600080fd5b3360009081526005602090815260408083205460069092529091205403821115610c3b57600080fd5b33600090815260066020526040902054610c559083610f24565b33600090815260066020526040808220929092556001600160a01b03851681522054610c819083610f81565b6001600160a01b0384166000818152600660209081526040918290209390935580518581529051919233927fddf252ad1be2c89b69c2b068fc378daa952ba7f163c4a11628f55a4df523b3ef9281900390910190a350600192915050565b60003360009081526007602090815260408083206001600160a01b0387168452909152812054610d10908490610f81565b33600090815260056020908152604080832054600690925290912054919250610d399190610f24565b8110610d4457600080fd5b3360008181526007602090815260408083206001600160a01b03891680855290835292819020859055805187815290519293927f8c5be1e5ebec7d5bd14f71427d1e84f3dd0314c0f7b2291e5b200ac8c7c3b925929181900390910190a350503360009081526007602090815260408083206001600160a01b038616845290915290205492915050565b60006001600160a01b038316610de357600080fd5b6001600160a01b038216610df657600080fd5b506001600160a01b03918216600090815260076020908152604080832093909416825291909152205490565b610e2a610fe2565b6001600160a01b0316610e3b610a04565b6001600160a01b031614610e84576040805162461bcd60e51b8152602060048201819052602482015260008051602061100d833981519152604482015290519081900360640190fd5b6001600160a01b038116610ec95760405162461bcd60e51b8152600401808060200182810382526026815260200180610fe76026913960400191505060405180910390fd5b600080546040516001600160a01b03808516939216917f8be0079c531659141344cd1fd0a4f28419497f9722a3daafe3b4186f6b6457e091a3600080546001600160a01b0319166001600160a01b0392909216919091179055565b600082821115610f7b576040805162461bcd60e51b815260206004820152601e60248201527f536166654d6174683a207375627472616374696f6e206f766572666c6f770000604482015290519081900360640190fd5b50900390565b600082820183811015610fdb576040805162461bcd60e51b815260206004820152601b60248201527f536166654d6174683a206164646974696f6e206f766572666c6f770000000000604482015290519081900360640190fd5b9392505050565b339056fe4f776e61626c653a206e6577206f776e657220697320746865207a65726f20616464726573734f776e61626c653a2063616c6c6572206973206e6f7420746865206f776e6572a26469706673582212206d876514635bbd7bb4574e8e5495cebcdf24b25b759fb84377c31f5a44f9853964736f6c634300060c0033",
  "linkReferences": {},
  "deployedLinkReferences": {}
}